{
  "contractName": "FlightSuretyApp",
  "abi": [
    {
      "constant": true,
      "inputs": [],
      "name": "REGISTRATION_FEE",
      "outputs": [
        {
          "name": "",
          "type": "uint256"
        }
      ],
      "payable": false,
      "stateMutability": "view",
      "type": "function"
    },
    {
      "constant": true,
      "inputs": [],
      "name": "MAX_INSURANCE_AMOUNT",
      "outputs": [
        {
          "name": "",
          "type": "uint256"
        }
      ],
      "payable": false,
      "stateMutability": "view",
      "type": "function"
    },
    {
      "constant": true,
      "inputs": [],
      "name": "INSURANCE_DIVIDER",
      "outputs": [
        {
          "name": "",
          "type": "uint256"
        }
      ],
      "payable": false,
      "stateMutability": "view",
      "type": "function"
    },
    {
      "inputs": [],
      "payable": false,
      "stateMutability": "nonpayable",
      "type": "constructor"
    },
    {
      "anonymous": false,
      "inputs": [
        {
          "indexed": false,
          "name": "airline",
          "type": "address"
        }
      ],
      "name": "AirlineRegistrationRequested",
      "type": "event"
    },
    {
      "anonymous": false,
      "inputs": [
        {
          "indexed": false,
          "name": "airline",
          "type": "address"
        }
      ],
      "name": "AirlineRegistered",
      "type": "event"
    },
    {
      "anonymous": false,
      "inputs": [
        {
          "indexed": false,
          "name": "airline",
          "type": "address"
        }
      ],
      "name": "AirlinePaid",
      "type": "event"
    },
    {
      "anonymous": false,
      "inputs": [
        {
          "indexed": false,
          "name": "passenger",
          "type": "address"
        },
        {
          "indexed": false,
          "name": "flightKey",
          "type": "bytes32"
        }
      ],
      "name": "PassengerInsuranceBought",
      "type": "event"
    },
    {
      "anonymous": false,
      "inputs": [
        {
          "indexed": false,
          "name": "airline",
          "type": "address"
        },
        {
          "indexed": false,
          "name": "flight",
          "type": "string"
        },
        {
          "indexed": false,
          "name": "statusCode",
          "type": "uint8"
        }
      ],
      "name": "FlightProcessed",
      "type": "event"
    },
    {
      "anonymous": false,
      "inputs": [
        {
          "indexed": false,
          "name": "airline",
          "type": "address"
        },
        {
          "indexed": false,
          "name": "flight",
          "type": "string"
        },
        {
          "indexed": false,
          "name": "timestamp",
          "type": "uint256"
        },
        {
          "indexed": false,
          "name": "status",
          "type": "uint8"
        }
      ],
      "name": "FlightStatusInfo",
      "type": "event"
    },
    {
      "anonymous": false,
      "inputs": [
        {
          "indexed": false,
          "name": "airline",
          "type": "address"
        },
        {
          "indexed": false,
          "name": "flight",
          "type": "string"
        },
        {
          "indexed": false,
          "name": "timestamp",
          "type": "uint256"
        },
        {
          "indexed": false,
          "name": "status",
          "type": "uint8"
        }
      ],
      "name": "OracleReport",
      "type": "event"
    },
    {
      "anonymous": false,
      "inputs": [
        {
          "indexed": false,
          "name": "index",
          "type": "uint8"
        },
        {
          "indexed": false,
          "name": "airline",
          "type": "address"
        },
        {
          "indexed": false,
          "name": "flight",
          "type": "string"
        },
        {
          "indexed": false,
          "name": "timestamp",
          "type": "uint256"
        }
      ],
      "name": "OracleRequest",
      "type": "event"
    },
    {
      "constant": true,
      "inputs": [],
      "name": "isOperational",
      "outputs": [
        {
          "name": "",
          "type": "bool"
        }
      ],
      "payable": false,
      "stateMutability": "view",
      "type": "function"
    },
    {
      "constant": false,
      "inputs": [
        {
          "name": "mode",
          "type": "bool"
        }
      ],
      "name": "setOperationalStatus",
      "outputs": [],
      "payable": false,
      "stateMutability": "nonpayable",
      "type": "function"
    },
    {
      "constant": false,
      "inputs": [
        {
          "name": "name",
          "type": "string"
        }
      ],
      "name": "requestAirlineRegistration",
      "outputs": [],
      "payable": false,
      "stateMutability": "nonpayable",
      "type": "function"
    },
    {
      "constant": false,
      "inputs": [
        {
          "name": "airline",
          "type": "address"
        }
      ],
      "name": "authorizeAirlineRegistration",
      "outputs": [],
      "payable": false,
      "stateMutability": "nonpayable",
      "type": "function"
    },
    {
      "constant": false,
      "inputs": [],
      "name": "payAirlineDues",
      "outputs": [],
      "payable": true,
      "stateMutability": "payable",
      "type": "function"
    },
    {
      "constant": false,
      "inputs": [
        {
          "name": "airline",
          "type": "address"
        },
        {
          "name": "flight",
          "type": "string"
        },
        {
          "name": "timestamp",
          "type": "uint256"
        }
      ],
      "name": "purchaseInsurance",
      "outputs": [],
      "payable": true,
      "stateMutability": "payable",
      "type": "function"
    },
    {
      "constant": true,
      "inputs": [
        {
          "name": "flight",
          "type": "string"
        }
      ],
      "name": "getInsurance",
      "outputs": [
        {
          "name": "amount",
          "type": "uint256"
        },
        {
          "name": "payoutAMount",
          "type": "uint256"
        },
        {
          "name": "state",
          "type": "uint256"
        }
      ],
      "payable": false,
      "stateMutability": "view",
      "type": "function"
    },
    {
      "constant": false,
      "inputs": [
        {
          "name": "airline",
          "type": "address"
        },
        {
          "name": "flight",
          "type": "string"
        },
        {
          "name": "timestamp",
          "type": "uint256"
        }
      ],
      "name": "claimInsurance",
      "outputs": [],
      "payable": false,
      "stateMutability": "nonpayable",
      "type": "function"
    },
    {
      "constant": true,
      "inputs": [],
      "name": "getBalance",
      "outputs": [
        {
          "name": "balance",
          "type": "uint256"
        }
      ],
      "payable": false,
      "stateMutability": "view",
      "type": "function"
    },
    {
      "constant": false,
      "inputs": [],
      "name": "withdraeBalance",
      "outputs": [],
      "payable": false,
      "stateMutability": "nonpayable",
      "type": "function"
    },
    {
      "constant": true,
      "inputs": [],
      "name": "getFlightCount",
      "outputs": [
        {
          "name": "count",
          "type": "uint256"
        }
      ],
      "payable": false,
      "stateMutability": "view",
      "type": "function"
    },
    {
      "constant": false,
      "inputs": [
        {
          "name": "status",
          "type": "uint8"
        },
        {
          "name": "flight",
          "type": "string"
        }
      ],
      "name": "registerFlight",
      "outputs": [],
      "payable": false,
      "stateMutability": "nonpayable",
      "type": "function"
    },
    {
      "constant": false,
      "inputs": [
        {
          "name": "airline",
          "type": "address"
        },
        {
          "name": "flight",
          "type": "string"
        },
        {
          "name": "timestamp",
          "type": "uint256"
        }
      ],
      "name": "fetchFlightStatus",
      "outputs": [],
      "payable": false,
      "stateMutability": "nonpayable",
      "type": "function"
    },
    {
      "constant": false,
      "inputs": [],
      "name": "registerOracle",
      "outputs": [],
      "payable": true,
      "stateMutability": "payable",
      "type": "function"
    },
    {
      "constant": true,
      "inputs": [],
      "name": "getMyIndexes",
      "outputs": [
        {
          "name": "",
          "type": "uint8[3]"
        }
      ],
      "payable": false,
      "stateMutability": "view",
      "type": "function"
    },
    {
      "constant": false,
      "inputs": [
        {
          "name": "index",
          "type": "uint8"
        },
        {
          "name": "airline",
          "type": "address"
        },
        {
          "name": "flight",
          "type": "string"
        },
        {
          "name": "timestamp",
          "type": "uint256"
        },
        {
          "name": "statusCode",
          "type": "uint8"
        }
      ],
      "name": "submitOracleResponse",
      "outputs": [],
      "payable": false,
      "stateMutability": "nonpayable",
      "type": "function"
    }
  ],
  "bytecode": "0x60806040526001600060146101000a81548160ff0219169083151502179055506000600460146101000a81548160ff021916908360ff16021790555034801561004757600080fd5b50336000806101000a81548173ffffffffffffffffffffffffffffffffffffffff021916908373ffffffffffffffffffffffffffffffffffffffff16021790555061301f806100976000396000f300608060405260043610610107576000357c0100000000000000000000000000000000000000000000000000000000900463ffffffff16806312065fe01461010c578063339d25901461013757806339b8278c146101415780635122cb3814610184578063515b3d28146101b35780635870c417146101de5780635f1cc0e61461023b57806364b4f7511461028e5780637989f1a8146102b95780638fdac8e214610301578063a9279ed81461033c578063c10f270014610394578063c820cb1414610413578063cd905dff14610478578063debe246f146104a7578063e375e926146104be578063f2727bea146104e9578063f83f11c014610514578063fe2f87b914610579575b600080fd5b34801561011857600080fd5b50610121610583565b6040518082815260200191505060405180910390f35b61013f610682565b005b34801561014d57600080fd5b50610182600480360381019080803573ffffffffffffffffffffffffffffffffffffffff1690602001909291905050506107aa565b005b34801561019057600080fd5b506101b1600480360381019080803515159060200190929190505050610e31565b005b3480156101bf57600080fd5b506101c8610f12565b6040518082815260200191505060405180910390f35b3480156101ea57600080fd5b50610217600480360381019080803590602001908201803590602001919091929391929390505050610f1f565b60405180848152602001838152602001828152602001935050505060405180910390f35b34801561024757600080fd5b5061025061105f565b6040518082600360200280838360005b8381101561027b578082015181840152602081019050610260565b5050505090500191505060405180910390f35b34801561029a57600080fd5b506102a36111d4565b6040518082815260200191505060405180910390f35b3480156102c557600080fd5b506102ff600480360381019080803560ff1690602001909291908035906020019082018035906020019190919293919293905050506111e0565b005b34801561030d57600080fd5b5061033a6004803603810190808035906020019082018035906020019190919293919293905050506114e5565b005b610392600480360381019080803573ffffffffffffffffffffffffffffffffffffffff1690602001909291908035906020019082018035906020019190919293919293908035906020019092919050505061164f565b005b3480156103a057600080fd5b50610411600480360381019080803560ff169060200190929190803573ffffffffffffffffffffffffffffffffffffffff16906020019092919080359060200190820180359060200191909192939192939080359060200190929190803560ff1690602001909291905050506119dd565b005b34801561041f57600080fd5b50610476600480360381019080803573ffffffffffffffffffffffffffffffffffffffff16906020019092919080359060200190820180359060200191909192939192939080359060200190929190505050611ff6565b005b34801561048457600080fd5b5061048d6121de565b604051808215151515815260200191505060405180910390f35b3480156104b357600080fd5b506104bc6121f4565b005b3480156104ca57600080fd5b506104d36122cb565b6040518082815260200191505060405180910390f35b3480156104f557600080fd5b506104fe6122d7565b6040518082815260200191505060405180910390f35b34801561052057600080fd5b50610577600480360381019080803573ffffffffffffffffffffffffffffffffffffffff169060200190929190803590602001908201803590602001919091929391929390803590602001909291905050506122dc565b005b610581612546565b005b6000600460009054906101000a900473ffffffffffffffffffffffffffffffffffffffff1673ffffffffffffffffffffffffffffffffffffffff1663385de787336040518263ffffffff167c0100000000000000000000000000000000000000000000000000000000028152600401808273ffffffffffffffffffffffffffffffffffffffff1673ffffffffffffffffffffffffffffffffffffffff168152602001915050602060405180830381600087803b15801561064257600080fd5b505af1158015610656573d6000803e3d6000fd5b505050506040513d602081101561066c57600080fd5b8101908080519060200190929190505050905090565b61068a612e61565b670de0b6b3a7640000341015151561070a576040517f08c379a000000000000000000000000000000000000000000000000000000000815260040180806020018281038252601c8152602001807f526567697374726174696f6e206665652069732072657175697265640000000081525060200191505060405180910390fd5b61071333612909565b9050604080519081016040528060011515815260200182815250600560003373ffffffffffffffffffffffffffffffffffffffff1673ffffffffffffffffffffffffffffffffffffffff16815260200190815260200160002060008201518160000160006101000a81548160ff0219169083151502179055506020820151816001019060036107a3929190612e84565b5090505050565b6000806000806002600460009054906101000a900473ffffffffffffffffffffffffffffffffffffffff1673ffffffffffffffffffffffffffffffffffffffff16631537b7e0336040518263ffffffff167c0100000000000000000000000000000000000000000000000000000000028152600401808273ffffffffffffffffffffffffffffffffffffffff1673ffffffffffffffffffffffffffffffffffffffff168152602001915050602060405180830381600087803b15801561086f57600080fd5b505af1158015610883573d6000803e3d6000fd5b505050506040513d602081101561089957600080fd5b810190808051906020019092919050505014151561091f576040517f08c379a000000000000000000000000000000000000000000000000000000000815260040180806020018281038252601a8152602001807f4f6e6c792070616964204169726c696e657320416c6c6f77656400000000000081525060200191505060405180910390fd5b6000600460009054906101000a900473ffffffffffffffffffffffffffffffffffffffff1673ffffffffffffffffffffffffffffffffffffffff16631537b7e0876040518263ffffffff167c0100000000000000000000000000000000000000000000000000000000028152600401808273ffffffffffffffffffffffffffffffffffffffff1673ffffffffffffffffffffffffffffffffffffffff168152602001915050602060405180830381600087803b1580156109de57600080fd5b505af11580156109f2573d6000803e3d6000fd5b505050506040513d6020811015610a0857600080fd5b8101908080519060200190929190505050141515610ab4576040517f08c379a00000000000000000000000000000000000000000000000000000000081526004018080602001828103825260298152602001807f54686973206169726c696e6520686173206e6f74206265656e2020617574686f81526020017f72697a656420796574000000000000000000000000000000000000000000000081525060400191505060405180910390fd5b60009350600460009054906101000a900473ffffffffffffffffffffffffffffffffffffffff1673ffffffffffffffffffffffffffffffffffffffff1663dd177bb96040518163ffffffff167c0100000000000000000000000000000000000000000000000000000000028152600401602060405180830381600087803b158015610b3e57600080fd5b505af1158015610b52573d6000803e3d6000fd5b505050506040513d6020811015610b6857600080fd5b81019080805190602001909291905050509250600460ff16831015610b905760019350610cdf565b600460009054906101000a900473ffffffffffffffffffffffffffffffffffffffff1673ffffffffffffffffffffffffffffffffffffffff1663cbb6200586336040518363ffffffff167c0100000000000000000000000000000000000000000000000000000000028152600401808373ffffffffffffffffffffffffffffffffffffffff1673ffffffffffffffffffffffffffffffffffffffff1681526020018273ffffffffffffffffffffffffffffffffffffffff1673ffffffffffffffffffffffffffffffffffffffff16815260200192505050602060405180830381600087803b158015610c8157600080fd5b505af1158015610c95573d6000803e3d6000fd5b505050506040513d6020811015610cab57600080fd5b81019080805190602001909291905050509150600283811515610cca57fe5b049050808260ff16101515610cde57600193505b5b8315610e2a57600460009054906101000a900473ffffffffffffffffffffffffffffffffffffffff1673ffffffffffffffffffffffffffffffffffffffff166336531c4c8660016040518363ffffffff167c0100000000000000000000000000000000000000000000000000000000028152600401808373ffffffffffffffffffffffffffffffffffffffff1673ffffffffffffffffffffffffffffffffffffffff1681526020018260ff16815260200192505050600060405180830381600087803b158015610dae57600080fd5b505af1158015610dc2573d6000803e3d6000fd5b505050507f89a6354fb229eda6cbc28306798727b4d524818d2c375220bc3f360f24cffaca85604051808273ffffffffffffffffffffffffffffffffffffffff1673ffffffffffffffffffffffffffffffffffffffff16815260200191505060405180910390a15b5050505050565b6000809054906101000a900473ffffffffffffffffffffffffffffffffffffffff1673ffffffffffffffffffffffffffffffffffffffff163373ffffffffffffffffffffffffffffffffffffffff16141515610ef5576040517f08c379a000000000000000000000000000000000000000000000000000000000815260040180806020018281038252601c8152602001807f43616c6c6572206973206e6f7420636f6e7472616374206f776e65720000000081525060200191505060405180910390fd5b80600060146101000a81548160ff02191690831515021790555050565b6000600280549050905090565b6000806000600460009054906101000a900473ffffffffffffffffffffffffffffffffffffffff1673ffffffffffffffffffffffffffffffffffffffff1663b96978833387876040518463ffffffff167c0100000000000000000000000000000000000000000000000000000000028152600401808473ffffffffffffffffffffffffffffffffffffffff1673ffffffffffffffffffffffffffffffffffffffff1681526020018060200182810382528484828181526020019250808284378201915050945050505050606060405180830381600087803b15801561100357600080fd5b505af1158015611017573d6000803e3d6000fd5b505050506040513d606081101561102d57600080fd5b810190808051906020019092919080519060200190929190805190602001909291905050509250925092509250925092565b611067612e61565b600560003373ffffffffffffffffffffffffffffffffffffffff1673ffffffffffffffffffffffffffffffffffffffff16815260200190815260200160002060000160009054906101000a900460ff16151561112b576040517f08c379a000000000000000000000000000000000000000000000000000000000815260040180806020018281038252601b8152602001807f4e6f74207265676973746572656420617320616e206f7261636c65000000000081525060200191505060405180910390fd5b600560003373ffffffffffffffffffffffffffffffffffffffff1673ffffffffffffffffffffffffffffffffffffffff1681526020019081526020016000206001016003806020026040519081016040528092919082600380156111ca576020028201916000905b82829054906101000a900460ff1660ff16815260200190600101906020826000010492830192600103820291508084116111935790505b5050505050905090565b670de0b6b3a764000081565b60006002600460009054906101000a900473ffffffffffffffffffffffffffffffffffffffff1673ffffffffffffffffffffffffffffffffffffffff16631537b7e0336040518263ffffffff167c0100000000000000000000000000000000000000000000000000000000028152600401808273ffffffffffffffffffffffffffffffffffffffff1673ffffffffffffffffffffffffffffffffffffffff168152602001915050602060405180830381600087803b1580156112a157600080fd5b505af11580156112b5573d6000803e3d6000fd5b505050506040513d60208110156112cb57600080fd5b8101908080519060200190929190505050141515611351576040517f08c379a000000000000000000000000000000000000000000000000000000000815260040180806020018281038252601a8152602001807f4f6e6c792070616964204169726c696e657320416c6c6f77656400000000000081525060200191505060405180910390fd5b6113918460ff1684848080601f01602080910402602001604051908101604052809392919081815260200183838082843782019150505050505042612aaf565b90506080604051908101604052803373ffffffffffffffffffffffffffffffffffffffff1681526020018560ff16815260200142815260200184848080601f01602080910402602001604051908101604052809392919081815260200183838082843782019150505050505081525060016000836000191660001916815260200190815260200160002060008201518160000160006101000a81548173ffffffffffffffffffffffffffffffffffffffff021916908373ffffffffffffffffffffffffffffffffffffffff16021790555060208201518160000160146101000a81548160ff021916908360ff1602179055506040820151816001015560608201518160020190805190602001906114a9929190612f1e565b50905050600281908060018154018082558091505090600182039060005260206000200160009091929091909150906000191690555050505050565b600460009054906101000a900473ffffffffffffffffffffffffffffffffffffffff1673ffffffffffffffffffffffffffffffffffffffff1663397a055a33600085856040518563ffffffff167c0100000000000000000000000000000000000000000000000000000000028152600401808573ffffffffffffffffffffffffffffffffffffffff1673ffffffffffffffffffffffffffffffffffffffff1681526020018460ff168152602001806020018281038252848482818152602001925080828437820191505095505050505050600060405180830381600087803b1580156115d057600080fd5b505af11580156115e4573d6000803e3d6000fd5b505050507f43ade271b72a593238b85ec085d724325de946f1e1d3aac974ca1e6814ea6a7033604051808273ffffffffffffffffffffffffffffffffffffffff1673ffffffffffffffffffffffffffffffffffffffff16815260200191505060405180910390a15050565b60008061168f8686868080601f01602080910402602001604051908101604052809392919081815260200183838082843782019150505050505085612aaf565b9150600060016000846000191660001916815260200190815260200160002060020180546001816001161561010002031660029004905011151561173b576040517f08c379a00000000000000000000000000000000000000000000000000000000081526004018080602001828103825260168152602001807f466c6967687420646f6573206e6f74206578697374730000000000000000000081525060200191505060405180910390fd5b670de0b6b3a764000034111515156117e1576040517f08c379a00000000000000000000000000000000000000000000000000000000081526004018080602001828103825260348152602001807f50617373656e6765722063616e206f6e6c79206275792061206d6178206f662081526020017f31657468657220666f7220696e737572616e636500000000000000000000000081525060400191505060405180910390fd5b600360009054906101000a900473ffffffffffffffffffffffffffffffffffffffff1673ffffffffffffffffffffffffffffffffffffffff166108fc349081150290604051600060405180830381858888f19350505050158015611849573d6000803e3d6000fd5b5060023481151561185657fe5b0434019050600460009054906101000a900473ffffffffffffffffffffffffffffffffffffffff1673ffffffffffffffffffffffffffffffffffffffff1663014299b233878734866040518663ffffffff167c0100000000000000000000000000000000000000000000000000000000028152600401808673ffffffffffffffffffffffffffffffffffffffff1673ffffffffffffffffffffffffffffffffffffffff16815260200180602001848152602001838152602001828103825286868281815260200192508082843782019150509650505050505050600060405180830381600087803b15801561194a57600080fd5b505af115801561195e573d6000803e3d6000fd5b505050507f10f7330e4aaa31f143ab522405b76bdac5ac6e2771f3fd84244a2531ce9256893383604051808373ffffffffffffffffffffffffffffffffffffffff1673ffffffffffffffffffffffffffffffffffffffff16815260200182600019166000191681526020019250505060405180910390a1505050505050565b60008660ff16600560003373ffffffffffffffffffffffffffffffffffffffff1673ffffffffffffffffffffffffffffffffffffffff1681526020019081526020016000206001016000600381101515611a3357fe5b602091828204019190069054906101000a900460ff1660ff161480611ac257508660ff16600560003373ffffffffffffffffffffffffffffffffffffffff1673ffffffffffffffffffffffffffffffffffffffff1681526020019081526020016000206001016001600381101515611aa757fe5b602091828204019190069054906101000a900460ff1660ff16145b80611b3757508660ff16600560003373ffffffffffffffffffffffffffffffffffffffff1673ffffffffffffffffffffffffffffffffffffffff1681526020019081526020016000206001016002600381101515611b1c57fe5b602091828204019190069054906101000a900460ff1660ff16145b1515611bd1576040517f08c379a00000000000000000000000000000000000000000000000000000000081526004018080602001828103825260238152602001807f496e64657820646f6573206e6f74206d61746368206f7261636c65207265717581526020017f657374000000000000000000000000000000000000000000000000000000000081525060400191505060405180910390fd5b8686868686604051602001808660ff1660ff167f01000000000000000000000000000000000000000000000000000000000000000281526001018573ffffffffffffffffffffffffffffffffffffffff1673ffffffffffffffffffffffffffffffffffffffff166c010000000000000000000000000281526014018484808284378201915050828152602001955050505050506040516020818303038152906040526040518082805190602001908083835b602083101515611ca85780518252602082019150602081019050602083039250611c83565b6001836020036101000a0380198251168184511680821785525050505050509050019150506040518091039020905060066000826000191660001916815260200190815260200160002060000160149054906101000a900460ff161515611d9d576040517f08c379a000000000000000000000000000000000000000000000000000000000815260040180806020018281038252602f8152602001807f466c69676874206f722074696d657374616d7020646f206e6f74206d6174636881526020017f206f7261636c652072657175657374000000000000000000000000000000000081525060400191505060405180910390fd5b60066000826000191660001916815260200190815260200160002060010160008360ff1660ff1681526020019081526020016000203390806001815401808255809150509060018203906000526020600020016000909192909190916101000a81548173ffffffffffffffffffffffffffffffffffffffff021916908373ffffffffffffffffffffffffffffffffffffffff160217905550507f43c853095c2752648493c88b4baac4d580d2594ffb00c6f1d4242d844514f7838686868686604051808673ffffffffffffffffffffffffffffffffffffffff1673ffffffffffffffffffffffffffffffffffffffff168152602001806020018481526020018360ff1660ff16815260200182810382528686828181526020019250808284378201915050965050505050505060405180910390a1600360066000836000191660001916815260200190815260200160002060010160008460ff1660ff16815260200190815260200160002080549050101515611fed577fe23f5229de535c091e3b7bec2665f5d698192d3b31393066e8987b7a05076b6c8686868686604051808673ffffffffffffffffffffffffffffffffffffffff1673ffffffffffffffffffffffffffffffffffffffff168152602001806020018481526020018360ff1660ff16815260200182810382528686828181526020019250808284378201915050965050505050505060405180910390a1611fec8686868080601f0160208091040260200160405190810160405280939291908181526020018383808284378201915050505050508585612bd4565b5b50505050505050565b60006120358585858080601f01602080910402602001604051908101604052809392919081815260200183838082843782019150505050505084612aaf565b9050601460ff1660016000836000191660001916815260200190815260200160002060000160149054906101000a900460ff1660ff161415156120e0576040517f08c379a00000000000000000000000000000000000000000000000000000000081526004018080602001828103825260168152602001807f464c6967687420776173206e6f742064656c617965640000000000000000000081525060200191505060405180910390fd5b600460009054906101000a900473ffffffffffffffffffffffffffffffffffffffff1673ffffffffffffffffffffffffffffffffffffffff16633491daf03386866040518463ffffffff167c0100000000000000000000000000000000000000000000000000000000028152600401808473ffffffffffffffffffffffffffffffffffffffff1673ffffffffffffffffffffffffffffffffffffffff1681526020018060200182810382528484828181526020019250808284378201915050945050505050600060405180830381600087803b1580156121bf57600080fd5b505af11580156121d3573d6000803e3d6000fd5b505050505050505050565b60008060149054906101000a900460ff16905090565b600460009054906101000a900473ffffffffffffffffffffffffffffffffffffffff1673ffffffffffffffffffffffffffffffffffffffff1663f8ff28cb336040518263ffffffff167c0100000000000000000000000000000000000000000000000000000000028152600401808273ffffffffffffffffffffffffffffffffffffffff1673ffffffffffffffffffffffffffffffffffffffff168152602001915050600060405180830381600087803b1580156122b157600080fd5b505af11580156122c5573d6000803e3d6000fd5b50505050565b670de0b6b3a764000081565b600281565b6000806122e833612cff565b91508186868686604051602001808660ff1660ff167f01000000000000000000000000000000000000000000000000000000000000000281526001018573ffffffffffffffffffffffffffffffffffffffff1673ffffffffffffffffffffffffffffffffffffffff166c010000000000000000000000000281526014018484808284378201915050828152602001955050505050506040516020818303038152906040526040518082805190602001908083835b6020831015156123c1578051825260208201915060208101905060208303925061239c565b6001836020036101000a0380198251168184511680821785525050505050509050019150506040518091039020905060408051908101604052803373ffffffffffffffffffffffffffffffffffffffff1681526020016001151581525060066000836000191660001916815260200190815260200160002060008201518160000160006101000a81548173ffffffffffffffffffffffffffffffffffffffff021916908373ffffffffffffffffffffffffffffffffffffffff16021790555060208201518160000160146101000a81548160ff0219169083151502179055509050507f3ed01f2c3fc24c6b329d931e35b03e390d23497d22b3f90e15b600343e93df118287878787604051808660ff1660ff1681526020018573ffffffffffffffffffffffffffffffffffffffff1673ffffffffffffffffffffffffffffffffffffffff1681526020018060200183815260200182810382528585828181526020019250808284378201915050965050505050505060405180910390a1505050505050565b6001600460009054906101000a900473ffffffffffffffffffffffffffffffffffffffff1673ffffffffffffffffffffffffffffffffffffffff16631537b7e0336040518263ffffffff167c0100000000000000000000000000000000000000000000000000000000028152600401808273ffffffffffffffffffffffffffffffffffffffff1673ffffffffffffffffffffffffffffffffffffffff168152602001915050602060405180830381600087803b15801561260557600080fd5b505af1158015612619573d6000803e3d6000fd5b505050506040513d602081101561262f57600080fd5b81019080805190602001909291905050501415156126db576040517f08c379a00000000000000000000000000000000000000000000000000000000081526004018080602001828103825260218152602001807f4f6e6c7920526567696f737465726564206169726c696e657320616c6c6f776581526020017f640000000000000000000000000000000000000000000000000000000000000081525060400191505060405180910390fd5b678ac7230489e800003414151561275a576040517f08c379a000000000000000000000000000000000000000000000000000000000815260040180806020018281038252601f8152602001807f5061796d656e74206f662031302065746865722069732072657175697265640081525060200191505060405180910390fd5b600360009054906101000a900473ffffffffffffffffffffffffffffffffffffffff1673ffffffffffffffffffffffffffffffffffffffff166108fc349081150290604051600060405180830381858888f193505050501580156127c2573d6000803e3d6000fd5b50600460009054906101000a900473ffffffffffffffffffffffffffffffffffffffff1673ffffffffffffffffffffffffffffffffffffffff166336531c4c3360026040518363ffffffff167c0100000000000000000000000000000000000000000000000000000000028152600401808373ffffffffffffffffffffffffffffffffffffffff1673ffffffffffffffffffffffffffffffffffffffff1681526020018260ff16815260200192505050600060405180830381600087803b15801561288c57600080fd5b505af11580156128a0573d6000803e3d6000fd5b505050507fad9921fcabbc5a673025ca3b0152068865e0726f300582f815fc4fad8319042433604051808273ffffffffffffffffffffffffffffffffffffffff1673ffffffffffffffffffffffffffffffffffffffff16815260200191505060405180910390a1565b612911612e61565b612919612e61565b61292283612cff565b81600060038110151561293157fe5b602002019060ff16908160ff168152505080600060038110151561295157fe5b602002015181600160038110151561296557fe5b602002019060ff16908160ff16815250505b80600060038110151561298657fe5b602002015160ff1681600160038110151561299d57fe5b602002015160ff1614156129d9576129b483612cff565b8160016003811015156129c357fe5b602002019060ff16908160ff1681525050612977565b8060016003811015156129e857fe5b60200201518160026003811015156129fc57fe5b602002019060ff16908160ff16815250505b806000600381101515612a1d57fe5b602002015160ff16816002600381101515612a3457fe5b602002015160ff161480612a735750806001600381101515612a5257fe5b602002015160ff16816002600381101515612a6957fe5b602002015160ff16145b15612aa657612a8183612cff565b816002600381101515612a9057fe5b602002019060ff16908160ff1681525050612a0e565b80915050919050565b6000838383604051602001808473ffffffffffffffffffffffffffffffffffffffff1673ffffffffffffffffffffffffffffffffffffffff166c0100000000000000000000000002815260140183805190602001908083835b602083101515612b2d5780518252602082019150602081019050602083039250612b08565b6001836020036101000a03801982511681845116808217855250505050505090500182815260200193505050506040516020818303038152906040526040518082805190602001908083835b602083101515612b9e5780518252602082019150602081019050602083039250612b79565b6001836020036101000a038019825116818451168082178552505050505050905001915050604051809103902090509392505050565b6000612be1858585612aaf565b90508160016000836000191660001916815260200190815260200160002060000160146101000a81548160ff021916908360ff1602179055507fe1bc81f7652bebe6496034769a4e894fb62e81c9d6229bfe94437c7c6cec5f13858584604051808473ffffffffffffffffffffffffffffffffffffffff1673ffffffffffffffffffffffffffffffffffffffff168152602001806020018360ff1660ff168152602001828103825284818151815260200191508051906020019080838360005b83811015612cbc578082015181840152602081019050612ca1565b50505050905090810190601f168015612ce95780820380516001836020036101000a031916815260200191505b5094505050505060405180910390a15050505050565b6000806000600a91508160ff166004601481819054906101000a900460ff168092919060010191906101000a81548160ff021916908360ff16021790555060ff16430340856040516020018083600019166000191681526020018273ffffffffffffffffffffffffffffffffffffffff1673ffffffffffffffffffffffffffffffffffffffff166c01000000000000000000000000028152601401925050506040516020818303038152906040526040518082805190602001908083835b602083101515612de25780518252602082019150602081019050602083039250612dbd565b6001836020036101000a038019825116818451168082178552505050505050905001915050604051809103902060019004811515612e1c57fe5b06905060fa600460149054906101000a900460ff1660ff161115612e57576000600460146101000a81548160ff021916908360ff1602179055505b8092505050919050565b606060405190810160405280600390602082028038833980820191505090505090565b826003601f01602090048101928215612f0d5791602002820160005b83821115612ede57835183826101000a81548160ff021916908360ff1602179055509260200192600101602081600001049283019260010302612ea0565b8015612f0b5782816101000a81549060ff0219169055600101602081600001049283019260010302612ede565b505b509050612f1a9190612f9e565b5090565b828054600181600116156101000203166002900490600052602060002090601f016020900481019282601f10612f5f57805160ff1916838001178555612f8d565b82800160010185558215612f8d579182015b82811115612f8c578251825591602001919060010190612f71565b5b509050612f9a9190612fce565b5090565b612fcb91905b80821115612fc757600081816101000a81549060ff021916905550600101612fa4565b5090565b90565b612ff091905b80821115612fec576000816000905550600101612fd4565b5090565b905600a165627a7a72305820c7bb757fac15a980b538dc8b13d7cdbcb4dd6528d22b7739f4710a76fc815ef90029",
  "source": "pragma solidity ^0.4.25;\n\n// It's important to avoid vulnerabilities due to numeric overflow bugs\n// OpenZeppelin's SafeMath library, when used correctly, protects agains such bugs\n// More info: https://www.nccgroup.trust/us/about-us/newsroom-and-events/blog/2018/november/smart-contract-insecurity-bad-arithmetic/\n\nimport \"../node_modules/openzeppelin-solidity/contracts/math/SafeMath.sol\";\n\n/************************************************** */\n/* FlightSurety Smart Contract                      */\n/************************************************** */\ncontract FlightSuretyApp {\n    using SafeMath for uint256; // Allow SafeMath functions to be called for all uint256 types (similar to \"prototype\" in Javascript)\n\n    /********************************************************************************************/\n    /*                                       DATA VARIABLES                                     */\n    /********************************************************************************************/\n\n    // Flight status codees\n    uint8 private constant STATUS_CODE_UNKNOWN = 0;\n    uint8 private constant STATUS_CODE_ON_TIME = 10;\n    uint8 private constant STATUS_CODE_LATE_AIRLINE = 20;\n    uint8 private constant STATUS_CODE_LATE_WEATHER = 30;\n    uint8 private constant STATUS_CODE_LATE_TECHNICAL = 40;\n    uint8 private constant STATUS_CODE_LATE_OTHER = 50;\n    uint8 private constant NO_AIRLINES_REQUIRED_FOR_CONSENSUS_VOTING = 4;\n\n\n    address private contractOwner;          // Account used to deploy contract\n    bool private operational = true;\n\n    struct Flight {\n        address airline;\n        uint8 statusCode;\n        uint256 timestamp;        \n        string flight;\n    }\n    mapping(bytes32 => Flight) private flights;\n    bytes32[] private flightsKeyList;\n\n\n    address fsdContractAddress;\n    FlightSuretyData fsd;\n    \n\n\n    event AirlineRegistrationRequested(address airline);\n    event AirlineRegistered(address airline);\n    event AirlinePaid(address airline);\n\n \n    /********************************************************************************************/\n    /*                                       FUNCTION MODIFIERS                                 */\n    /********************************************************************************************/\n\n    // Modifiers help avoid duplication of code. They are typically used to validate something\n    // before a function is allowed to be executed.\n\n    /**\n    * @dev Modifier that requires the \"operational\" boolean variable to be \"true\"\n    *      This is used on all state changing functions to pause the contract in \n    *      the event there is an issue that needs to be fixed\n    */\n    modifier requireIsOperational() {\n         // Modify to call data contract's status\n        require(operational, \"Contract is currently not operational\");  \n        _;  // All modifiers require an \"_\" which indicates where the function body will be added\n    }\n\n    /**\n    * @dev Modifier that requires the \"ContractOwner\" account to be the function caller\n    */\n    modifier requireContractOwner()\n    {\n        require(msg.sender == contractOwner, \"Caller is not contract owner\");\n        _;\n    }\n\n    modifier onlyRegisteredAirlines() {\n        require(fsd.getAirlineState(msg.sender) == 1, \"Only Regiostered airlines allowed\");\n        _;\n    }\n\n    modifier onlyPaidAirlines() {\n        require(fsd.getAirlineState(msg.sender) == 2, \"Only paid Airlines Allowed\");\n        _;\n    }\n\n     \n\n\n    /********************************************************************************************/\n    /*                                       CONSTRUCTOR                                        */\n    /********************************************************************************************/\n\n    /**\n    * @dev Contract constructor\n    *\n    */\n    constructor () public {\n        contractOwner = msg.sender;\n    }\n\n    /********************************************************************************************/\n    /*                                       UTILITY FUNCTIONS                                  */\n    /********************************************************************************************/\n\n    function isOperational() public view returns(bool) {\n        return operational;  // Modify to call data contract's status\n    }\n\n    function setOperationalStatus (bool mode) external requireContractOwner {\n        operational = mode;\n    }\n\n    /********************************************************************************************/\n    /*                                     SMART CONTRACT FUNCTIONS                             */\n    /********************************************************************************************/\n\n  \n   /**\n    * @dev Add an airline to the registration queue\n    *\n    */   \n    function requestAirlineRegistration (string name) external {\n        fsd.registerAirline(msg.sender, 0, name);\n        emit AirlineRegistrationRequested(msg.sender);\n    }\n\n    function authorizeAirlineRegistration (address airline) external onlyPaidAirlines {\n        require(fsd.getAirlineState(airline) == 0, \"This airline has not been  authorized yet\");\n\n        bool authorized = false;\n        uint256 totalPaidAirlines = fsd.getTotalPaidAirlines();\n\n        if (totalPaidAirlines < NO_AIRLINES_REQUIRED_FOR_CONSENSUS_VOTING ) {\n            authorized = true;\n        } else {\n            uint8 authorizedCount = fsd.authorizeAirlineRegistration(airline, msg.sender);\n            uint256 noOfAuthorizationRequired = totalPaidAirlines / 2;\n\n            if (authorizedCount >= noOfAuthorizationRequired) authorized = true;\n\n        }\n\n        if (authorized) {\n            fsd.changeAirlineState(airline, 1);\n            emit AirlineRegistered(airline);\n        }\n    }\n\n\n    function payAirlineDues() external payable onlyRegisteredAirlines {\n        require(msg.value == 10 ether, \"Payment of 10 ether is required\");\n        fsdContractAddress.transfer(msg.value);\n        fsd.changeAirlineState(msg.sender, 2);\n        emit AirlinePaid(msg.sender);\n    }\n\n\n    // Insurance Functions\n\n    uint public constant MAX_INSURANCE_AMOUNT = 1 ether;\n    uint public constant INSURANCE_DIVIDER = 2;\n\n    event PassengerInsuranceBought(address passenger, bytes32 flightKey);\n\n    function purchaseInsurance(address airline, string flight, uint256 timestamp) external payable {\n        bytes32 flightKey = getFlightKey(airline, flight, timestamp);\n        require(bytes(flights[flightKey].flight).length > 0, \"Flight does not exists\");\n        require(msg.value <= MAX_INSURANCE_AMOUNT, \"Passenger can only buy a max of 1ether for insurance\");\n        fsdContractAddress.transfer(msg.value);\n        uint256 payoutAmount = msg.value + (msg.value / INSURANCE_DIVIDER);\n        fsd.createInsurance(msg.sender, flight, msg.value, payoutAmount);\n        emit PassengerInsuranceBought(msg.sender, flightKey);\n\n\n    }\n\n    function getInsurance(string flight) external view returns (uint256 amount, uint256 payoutAMount, uint256 state){\n        return fsd.getInsurance(msg.sender, flight);\n    }\n\n    function claimInsurance(address airline, string flight, uint256 timestamp) external {\n        bytes32 flightKey = getFlightKey(airline, flight, timestamp);\n        require(flights[flightKey].statusCode == STATUS_CODE_LATE_AIRLINE, \"FLight was not delayed\");\n        fsd.claimInsurance(msg.sender, flight);\n    }\n\n    function getBalance() external view returns (uint256 balance) {\n        balance = fsd.getPassengerBalance(msg.sender);\n    }\n\n    function withdraeBalance() external { \n        fsd.payPassenger(msg.sender);\n    }\n\n\n   /**\n    * @dev Register a future flight for insuring.\n    *\n    */  \n\n    event FlightProcessed(address airline, string flight, uint8 statusCode);\n\n    function getFlightCount() external view returns (uint256 count) {\n        return flightsKeyList.length;\n    }\n\n    function registerFlight(uint8 status, string flight) external onlyPaidAirlines {\n        bytes32 flightKey = getFlightKey(status, flight, now);\n        flights[flightKey] = Flight(msg.sender, status, now, flight);\n        flightsKeyList.push(flightKey);\n    }\n\n    \n\n     \n    \n   /**\n    * @dev Called after oracle has updated flight status\n    *\n    */  \n    function processFlightStatus(address airline, string  flight, uint256 timestamp, uint8 statusCode) private {\n        bytes32 flightKey = getFlightKey(airline, flight, timestamp);\n        flights[flightKey].statusCode = statusCode;\n        emit FlightProcessed(airline, flight, statusCode);\n    }\n\n \n\n\n    // Generate a request for oracles to fetch flight information\n    function fetchFlightStatus( address airline,string flight,uint256 timestamp  ) external {\n        uint8 index = getRandomIndex(msg.sender);\n\n        // Generate a unique key for storing the request\n        bytes32 key = keccak256(abi.encodePacked(index, airline, flight, timestamp));\n        oracleResponses[key] = ResponseInfo({\n                                                requester: msg.sender,\n                                                isOpen: true\n                                            });\n\n        emit OracleRequest(index, airline, flight, timestamp);\n    } \n\n\n// region ORACLE MANAGEMENT\n\n    // Incremented to add pseudo-randomness at various points\n    uint8 private nonce = 0;    \n\n    // Fee to be paid when registering oracle\n    uint256 public constant REGISTRATION_FEE = 1 ether;\n\n    // Number of oracles that must respond for valid status\n    uint256 private constant MIN_RESPONSES = 3;\n\n\n    struct Oracle {\n        bool isRegistered;\n        uint8[3] indexes;        \n    }\n\n    // Track all registered oracles\n    mapping(address => Oracle) private oracles;\n\n    // Model for responses from oracles\n    struct ResponseInfo {\n        address requester;                              // Account that requested status\n        bool isOpen;                                    // If open, oracle responses are accepted\n        mapping(uint8 => address[]) responses;          // Mapping key is the status code reported\n                                                        // This lets us group responses and identify\n                                                        // the response that majority of the oracles\n    }\n\n    // Track all oracle responses\n    // Key = hash(index, flight, timestamp)\n    mapping(bytes32 => ResponseInfo) private oracleResponses;\n\n    // Event fired each time an oracle submits a response\n    event FlightStatusInfo(address airline, string flight, uint256 timestamp, uint8 status);\n\n    event OracleReport(address airline, string flight, uint256 timestamp, uint8 status);\n\n    // Event fired when flight status request is submitted\n    // Oracles track this and if they have a matching index\n    // they fetch data and submit a response\n    event OracleRequest(uint8 index, address airline, string flight, uint256 timestamp);\n\n\n    // Register an oracle with the contract\n    function registerOracle\n                            (\n                            )\n                            external\n                            payable\n    {\n        // Require registration fee\n        require(msg.value >= REGISTRATION_FEE, \"Registration fee is required\");\n\n        uint8[3] memory indexes = generateIndexes(msg.sender);\n\n        oracles[msg.sender] = Oracle({\n                                        isRegistered: true,\n                                        indexes: indexes\n                                    });\n    }\n\n    function getMyIndexes\n                            (\n                            )\n                            view\n                            external\n                            returns(uint8[3])\n    {\n        require(oracles[msg.sender].isRegistered, \"Not registered as an oracle\");\n\n        return oracles[msg.sender].indexes;\n    }\n\n\n\n\n    // Called by oracle when a response is available to an outstanding request\n    // For the response to be accepted, there must be a pending request that is open\n    // and matches one of the three Indexes randomly assigned to the oracle at the\n    // time of registration (i.e. uninvited oracles are not welcome)\n    function submitOracleResponse\n                        (\n                            uint8 index,\n                            address airline,\n                            string flight,\n                            uint256 timestamp,\n                            uint8 statusCode\n                        )\n                        external\n    {\n        require((oracles[msg.sender].indexes[0] == index) || (oracles[msg.sender].indexes[1] == index) || (oracles[msg.sender].indexes[2] == index), \"Index does not match oracle request\");\n\n\n        bytes32 key = keccak256(abi.encodePacked(index, airline, flight, timestamp)); \n        require(oracleResponses[key].isOpen, \"Flight or timestamp do not match oracle request\");\n\n        oracleResponses[key].responses[statusCode].push(msg.sender);\n\n        // Information isn't considered verified until at least MIN_RESPONSES\n        // oracles respond with the *** same *** information\n        emit OracleReport(airline, flight, timestamp, statusCode);\n        if (oracleResponses[key].responses[statusCode].length >= MIN_RESPONSES) {\n\n            emit FlightStatusInfo(airline, flight, timestamp, statusCode);\n\n            // Handle flight status as appropriate\n            processFlightStatus(airline, flight, timestamp, statusCode);\n        }\n    }\n\n\n    function getFlightKey (address airline, string flight, uint256 timestamp)  pure internal returns(bytes32) {\n        return keccak256(abi.encodePacked(airline, flight, timestamp));\n    }\n\n    // Returns array of three non-duplicating integers from 0-9\n    function generateIndexes\n                            (                       \n                                address account         \n                            )\n                            internal\n                            returns(uint8[3])\n    {\n        uint8[3] memory indexes;\n        indexes[0] = getRandomIndex(account);\n        \n        indexes[1] = indexes[0];\n        while(indexes[1] == indexes[0]) {\n            indexes[1] = getRandomIndex(account);\n        }\n\n        indexes[2] = indexes[1];\n        while((indexes[2] == indexes[0]) || (indexes[2] == indexes[1])) {\n            indexes[2] = getRandomIndex(account);\n        }\n\n        return indexes;\n    }\n\n    // Returns array of three non-duplicating integers from 0-9\n    function getRandomIndex\n                            (\n                                address account\n                            )\n                            internal\n                            returns (uint8)\n    {\n        uint8 maxValue = 10;\n\n        // Pseudo random number...the incrementing nonce adds variation\n        uint8 random = uint8(uint256(keccak256(abi.encodePacked(blockhash(block.number - nonce++), account))) % maxValue);\n\n        if (nonce > 250) {\n            nonce = 0;  // Can only fetch blockhashes for last 256 blocks so we adapt\n        }\n\n        return random;\n    }\n\n// endregion\n\n}   \n\n\n\ncontract FlightSuretyData {\n    \n    function getAirlineState(address airline) view returns (uint) {\n        return 1;\n    }\n\n    function registerAirline(address airlineAddress, uint8 state, string name) public view;\n    function changeAirlineState(address airlineAddress, uint8 state) public view;\n    function getTotalPaidAirlines() public view returns(uint256){ return 1; }\n    function authorizeAirlineRegistration(address airline, address authorized) view returns (uint8) { return 1; }\n    function createInsurance(address passenger, string flight, uint256 amount, uint256 payoutAmount) public view;\n    function getInsurance(address passenger, string flight) public view returns(uint256 amount, uint256 payoutAmount, uint256 state) {\n        amount =  1;\n        payoutAmount = 1;\n        state = 1;\n    }\n\n    function claimInsurance(address passenger, string flight) public view;\n    function getPassengerBalance(address passenger) public view returns (uint256) { return 1; }\n    function payPassenger(address passenger) public view;\n\n\n}\n\n\n\n\n",
  "sourcePath": "/Users/haroldsphinx/Documents/BlockChainCourse/FlightSurety/contracts/FlightSuretyApp.sol",
  "compiler": {
    "name": "solc",
    "version": "0.4.26+commit.4563c3fc.Emscripten.clang"
  },
  "schemaVersion": "3.1.0",
  "updatedAt": "2020-05-31T21:53:57.859Z",
  "devdoc": {
    "methods": {
      "requestAirlineRegistration(string)": {
        "details": "Add an airline to the registration queue    "
      }
    }
  },
  "userdoc": {
    "methods": {
      "isOperational()": {
        "notice": "*****************************************************************************************"
      }
    }
  }
}