{
  "contractName": "FlightSuretyData",
  "abi": [
    {
      "constant": true,
      "inputs": [
        {
          "name": "",
          "type": "uint256"
        }
      ],
      "name": "flightKeys",
      "outputs": [
        {
          "name": "",
          "type": "bytes32"
        }
      ],
      "payable": false,
      "stateMutability": "view",
      "type": "function"
    },
    {
      "inputs": [],
      "payable": false,
      "stateMutability": "nonpayable",
      "type": "constructor"
    },
    {
      "payable": true,
      "stateMutability": "payable",
      "type": "fallback"
    },
    {
      "anonymous": false,
      "inputs": [
        {
          "indexed": false,
          "name": "airline",
          "type": "address"
        },
        {
          "indexed": false,
          "name": "airlinesCount",
          "type": "uint256"
        }
      ],
      "name": "RegisteredAirline",
      "type": "event"
    },
    {
      "anonymous": false,
      "inputs": [
        {
          "indexed": false,
          "name": "airline",
          "type": "address"
        },
        {
          "indexed": false,
          "name": "flightkey",
          "type": "bytes32"
        },
        {
          "indexed": false,
          "name": "flight",
          "type": "string"
        }
      ],
      "name": "FlightAdded",
      "type": "event"
    },
    {
      "constant": true,
      "inputs": [],
      "name": "isOperational",
      "outputs": [
        {
          "name": "",
          "type": "bool"
        }
      ],
      "payable": false,
      "stateMutability": "view",
      "type": "function"
    },
    {
      "constant": false,
      "inputs": [
        {
          "name": "mode",
          "type": "bool"
        }
      ],
      "name": "setOperatingStatus",
      "outputs": [],
      "payable": false,
      "stateMutability": "nonpayable",
      "type": "function"
    },
    {
      "constant": false,
      "inputs": [
        {
          "name": "callerAddress",
          "type": "address"
        }
      ],
      "name": "authorizeCaller",
      "outputs": [
        {
          "name": "",
          "type": "bool"
        }
      ],
      "payable": false,
      "stateMutability": "nonpayable",
      "type": "function"
    },
    {
      "constant": false,
      "inputs": [
        {
          "name": "callerAddress",
          "type": "address"
        }
      ],
      "name": "unauthorizeCaller",
      "outputs": [
        {
          "name": "",
          "type": "bool"
        }
      ],
      "payable": false,
      "stateMutability": "nonpayable",
      "type": "function"
    },
    {
      "constant": true,
      "inputs": [
        {
          "name": "airline",
          "type": "address"
        }
      ],
      "name": "getAirlineState",
      "outputs": [
        {
          "name": "",
          "type": "uint8"
        }
      ],
      "payable": false,
      "stateMutability": "view",
      "type": "function"
    },
    {
      "constant": false,
      "inputs": [
        {
          "name": "airlineAddress",
          "type": "address"
        },
        {
          "name": "state",
          "type": "uint8"
        },
        {
          "name": "name",
          "type": "string"
        }
      ],
      "name": "registerAirline",
      "outputs": [],
      "payable": false,
      "stateMutability": "nonpayable",
      "type": "function"
    },
    {
      "constant": false,
      "inputs": [
        {
          "name": "airlineAddress",
          "type": "address"
        },
        {
          "name": "state",
          "type": "uint8"
        }
      ],
      "name": "changeAirlineState",
      "outputs": [],
      "payable": false,
      "stateMutability": "nonpayable",
      "type": "function"
    },
    {
      "constant": true,
      "inputs": [],
      "name": "getTotalPaidAirlines",
      "outputs": [
        {
          "name": "",
          "type": "uint256"
        }
      ],
      "payable": false,
      "stateMutability": "view",
      "type": "function"
    },
    {
      "constant": false,
      "inputs": [
        {
          "name": "airlineAddress",
          "type": "address"
        },
        {
          "name": "authorized",
          "type": "address"
        }
      ],
      "name": "authorizeAirlineRegistration",
      "outputs": [
        {
          "name": "",
          "type": "uint8"
        }
      ],
      "payable": false,
      "stateMutability": "nonpayable",
      "type": "function"
    },
    {
      "constant": true,
      "inputs": [
        {
          "name": "passenger",
          "type": "address"
        },
        {
          "name": "flight",
          "type": "string"
        }
      ],
      "name": "getInsurance",
      "outputs": [
        {
          "name": "amount",
          "type": "uint256"
        },
        {
          "name": "payoutAmount",
          "type": "uint256"
        },
        {
          "name": "state",
          "type": "uint8"
        }
      ],
      "payable": false,
      "stateMutability": "view",
      "type": "function"
    },
    {
      "constant": true,
      "inputs": [
        {
          "name": "passenger",
          "type": "address"
        },
        {
          "name": "flight",
          "type": "string"
        },
        {
          "name": "amount",
          "type": "uint256"
        },
        {
          "name": "payoutAmount",
          "type": "uint256"
        }
      ],
      "name": "createInsurance",
      "outputs": [],
      "payable": false,
      "stateMutability": "view",
      "type": "function"
    },
    {
      "constant": true,
      "inputs": [
        {
          "name": "passenger",
          "type": "address"
        },
        {
          "name": "flight",
          "type": "string"
        },
        {
          "name": "amount",
          "type": "uint256"
        },
        {
          "name": "payoutAmount",
          "type": "uint256"
        }
      ],
      "name": "claimInsurance",
      "outputs": [],
      "payable": false,
      "stateMutability": "view",
      "type": "function"
    },
    {
      "constant": true,
      "inputs": [
        {
          "name": "passenger",
          "type": "address"
        }
      ],
      "name": "getInsuranceBalance",
      "outputs": [
        {
          "name": "",
          "type": "uint256"
        }
      ],
      "payable": false,
      "stateMutability": "view",
      "type": "function"
    },
    {
      "constant": false,
      "inputs": [
        {
          "name": "airline",
          "type": "address"
        },
        {
          "name": "flight",
          "type": "string"
        },
        {
          "name": "timestamp",
          "type": "uint256"
        }
      ],
      "name": "buy",
      "outputs": [],
      "payable": false,
      "stateMutability": "nonpayable",
      "type": "function"
    },
    {
      "constant": true,
      "inputs": [],
      "name": "creditInsurees",
      "outputs": [],
      "payable": false,
      "stateMutability": "pure",
      "type": "function"
    },
    {
      "constant": true,
      "inputs": [
        {
          "name": "passenger",
          "type": "address"
        }
      ],
      "name": "pay",
      "outputs": [],
      "payable": false,
      "stateMutability": "view",
      "type": "function"
    },
    {
      "constant": true,
      "inputs": [],
      "name": "pay",
      "outputs": [],
      "payable": false,
      "stateMutability": "pure",
      "type": "function"
    },
    {
      "constant": false,
      "inputs": [],
      "name": "fund",
      "outputs": [],
      "payable": true,
      "stateMutability": "payable",
      "type": "function"
    }
  ],
  "bytecode": "0x60806040526001600060146101000a81548160ff02191690831515021790555060006002553480156200003157600080fd5b50336000806101000a81548173ffffffffffffffffffffffffffffffffffffffff021916908373ffffffffffffffffffffffffffffffffffffffff1602179055506080604051908101604052806000809054906101000a900473ffffffffffffffffffffffffffffffffffffffff1673ffffffffffffffffffffffffffffffffffffffff168152602001600280811115620000c857fe5b81526020016040805190810160405280600d81526020017f4669727374204169726c696e65000000000000000000000000000000000000008152508152602001600060ff16815250600360008060009054906101000a900473ffffffffffffffffffffffffffffffffffffffff1673ffffffffffffffffffffffffffffffffffffffff1673ffffffffffffffffffffffffffffffffffffffff16815260200190815260200160002060008201518160000160006101000a81548173ffffffffffffffffffffffffffffffffffffffff021916908373ffffffffffffffffffffffffffffffffffffffff16021790555060208201518160000160146101000a81548160ff02191690836002811115620001dc57fe5b02179055506040820151816001019080519060200190620001ff9291906200023c565b5060608201518160030160006101000a81548160ff021916908360ff160217905550905050600260008154809291906001019190505550620002eb565b828054600181600116156101000203166002900490600052602060002090601f016020900481019282601f106200027f57805160ff1916838001178555620002b0565b82800160010185558215620002b0579182015b82811115620002af57825182559160200191906001019062000292565b5b509050620002bf9190620002c3565b5090565b620002e891905b80821115620002e4576000816000905550600101620002ca565b5090565b90565b61278e80620002fb6000396000f300608060405260043610610107576000357c0100000000000000000000000000000000000000000000000000000000900463ffffffff168063014299b2146101115780630c11dedd14610180578063110466ed146101c35780631537b7e0146101f25780631b9265b8146102575780632c388d5d1461026e57806336531c4c146102c957806336cee48414610319578063397a055a146103305780633d21d827146103985780634ac8c5ae146103e1578063637b93ed1461043c5780638892687f14610493578063b1c46d2214610502578063b60d428814610567578063b969788314610571578063cbb62005146105fc578063cd905dff14610679578063dd177bb9146106a8575b61010f6106d3565b005b34801561011d57600080fd5b5061017e600480360381019080803573ffffffffffffffffffffffffffffffffffffffff16906020019092919080359060200190820180359060200191909192939192939080359060200190929190803590602001909291905050506106d5565b005b34801561018c57600080fd5b506101c1600480360381019080803573ffffffffffffffffffffffffffffffffffffffff1690602001909291905050506109f0565b005b3480156101cf57600080fd5b506101f0600480360381019080803515159060200190929190505050610c8d565b005b3480156101fe57600080fd5b50610233600480360381019080803573ffffffffffffffffffffffffffffffffffffffff169060200190929190505050610d6e565b6040518082600281111561024357fe5b60ff16815260200191505060405180910390f35b34801561026357600080fd5b5061026c610edf565b005b34801561027a57600080fd5b506102af600480360381019080803573ffffffffffffffffffffffffffffffffffffffff169060200190929190505050610ee1565b604051808215151515815260200191505060405180910390f35b3480156102d557600080fd5b50610317600480360381019080803573ffffffffffffffffffffffffffffffffffffffff169060200190929190803560ff169060200190929190505050611052565b005b34801561032557600080fd5b5061032e6111fe565b005b34801561033c57600080fd5b50610396600480360381019080803573ffffffffffffffffffffffffffffffffffffffff169060200190929190803560ff169060200190929190803590602001908201803590602001919091929391929390505050611200565b005b3480156103a457600080fd5b506103c360048036038101908080359060200190929190505050611495565b60405180826000191660001916815260200191505060405180910390f35b3480156103ed57600080fd5b50610422600480360381019080803573ffffffffffffffffffffffffffffffffffffffff1690602001909291905050506114b8565b604051808215151515815260200191505060405180910390f35b34801561044857600080fd5b5061047d600480360381019080803573ffffffffffffffffffffffffffffffffffffffff16906020019092919050505061162a565b6040518082815260200191505060405180910390f35b34801561049f57600080fd5b50610500600480360381019080803573ffffffffffffffffffffffffffffffffffffffff169060200190929190803590602001908201803590602001919091929391929390803590602001909291908035906020019092919050505061178b565b005b34801561050e57600080fd5b50610565600480360381019080803573ffffffffffffffffffffffffffffffffffffffff16906020019092919080359060200190820180359060200191909192939192939080359060200190929190505050611bd8565b005b61056f6106d3565b005b34801561057d57600080fd5b506105ca600480360381019080803573ffffffffffffffffffffffffffffffffffffffff169060200190929190803590602001908201803590602001919091929391929390505050611e51565b604051808481526020018381526020018260018111156105e657fe5b60ff168152602001935050505060405180910390f35b34801561060857600080fd5b5061065d600480360381019080803573ffffffffffffffffffffffffffffffffffffffff169060200190929190803573ffffffffffffffffffffffffffffffffffffffff1690602001909291905050506120bc565b604051808260ff1660ff16815260200191505060405180910390f35b34801561068557600080fd5b5061068e612460565b604051808215151515815260200191505060405180910390f35b3480156106b457600080fd5b506106bd612476565b6040518082815260200191505060405180910390f35b565b600160003373ffffffffffffffffffffffffffffffffffffffff1673ffffffffffffffffffffffffffffffffffffffff16815260200190815260200160002060009054906101000a900460ff168061077957506000809054906101000a900473ffffffffffffffffffffffffffffffffffffffff1673ffffffffffffffffffffffffffffffffffffffff163373ffffffffffffffffffffffffffffffffffffffff16145b15156107ed576040517f08c379a000000000000000000000000000000000000000000000000000000000815260040180806020018281038252601b8152602001807f556e6174686f72697a656420436f6e74726163742043616c6c6572000000000081525060200191505060405180910390fd5b81600460008773ffffffffffffffffffffffffffffffffffffffff1673ffffffffffffffffffffffffffffffffffffffff168152602001908152602001600020858560405180838380828437820191505092505050908152602001604051809103902060010154141515156108ca576040517f08c379a00000000000000000000000000000000000000000000000000000000081526004018080602001828103825260188152602001807f496e737572616e636520616c726561647920657869737473000000000000000081525060200191505060405180910390fd5b60806040519081016040528085858080601f01602080910402602001604051908101604052809392919081815260200183838082843782019150505050505081526020018381526020018281526020016000600181111561092757fe5b815250600460008773ffffffffffffffffffffffffffffffffffffffff1673ffffffffffffffffffffffffffffffffffffffff168152602001908152602001600020858560405180838380828437820191505092505050908152602001604051809103902060008201518160000190805190602001906109a89291906126bd565b50602082015181600101556040820151816002015560608201518160030160006101000a81548160ff021916908360018111156109e157fe5b02179055509050505050505050565b600160003373ffffffffffffffffffffffffffffffffffffffff1673ffffffffffffffffffffffffffffffffffffffff16815260200190815260200160002060009054906101000a900460ff1680610a9457506000809054906101000a900473ffffffffffffffffffffffffffffffffffffffff1673ffffffffffffffffffffffffffffffffffffffff163373ffffffffffffffffffffffffffffffffffffffff16145b1515610b08576040517f08c379a000000000000000000000000000000000000000000000000000000000815260040180806020018281038252601b8152602001807f556e6174686f72697a656420436f6e74726163742043616c6c6572000000000081525060200191505060405180910390fd5b6000600560008373ffffffffffffffffffffffffffffffffffffffff1673ffffffffffffffffffffffffffffffffffffffff16815260200190815260200160002054111515610bbf576040517f08c379a00000000000000000000000000000000000000000000000000000000081526004018080602001828103825260148152602001807f496e7375666669656e6365742062616c616e636500000000000000000000000081525060200191505060405180910390fd5b6000600560008373ffffffffffffffffffffffffffffffffffffffff1673ffffffffffffffffffffffffffffffffffffffff168152602001908152602001600020819055508073ffffffffffffffffffffffffffffffffffffffff166108fc600560008473ffffffffffffffffffffffffffffffffffffffff1673ffffffffffffffffffffffffffffffffffffffff168152602001908152602001600020549081150290604051600060405180830381858888f19350505050158015610c89573d6000803e3d6000fd5b5050565b6000809054906101000a900473ffffffffffffffffffffffffffffffffffffffff1673ffffffffffffffffffffffffffffffffffffffff163373ffffffffffffffffffffffffffffffffffffffff16141515610d51576040517f08c379a000000000000000000000000000000000000000000000000000000000815260040180806020018281038252601c8152602001807f43616c6c6572206973206e6f7420636f6e7472616374206f776e65720000000081525060200191505060405180910390fd5b80600060146101000a81548160ff02191690831515021790555050565b6000600160003373ffffffffffffffffffffffffffffffffffffffff1673ffffffffffffffffffffffffffffffffffffffff16815260200190815260200160002060009054906101000a900460ff1680610e1457506000809054906101000a900473ffffffffffffffffffffffffffffffffffffffff1673ffffffffffffffffffffffffffffffffffffffff163373ffffffffffffffffffffffffffffffffffffffff16145b1515610e88576040517f08c379a000000000000000000000000000000000000000000000000000000000815260040180806020018281038252601b8152602001807f556e6174686f72697a656420436f6e74726163742043616c6c6572000000000081525060200191505060405180910390fd5b600360008373ffffffffffffffffffffffffffffffffffffffff1673ffffffffffffffffffffffffffffffffffffffff16815260200190815260200160002060000160149054906101000a900460ff169050919050565b565b60008060009054906101000a900473ffffffffffffffffffffffffffffffffffffffff1673ffffffffffffffffffffffffffffffffffffffff163373ffffffffffffffffffffffffffffffffffffffff16141515610fa7576040517f08c379a000000000000000000000000000000000000000000000000000000000815260040180806020018281038252601c8152602001807f43616c6c6572206973206e6f7420636f6e7472616374206f776e65720000000081525060200191505060405180910390fd5b60018060008473ffffffffffffffffffffffffffffffffffffffff1673ffffffffffffffffffffffffffffffffffffffff16815260200190815260200160002060006101000a81548160ff021916908315150217905550600160008373ffffffffffffffffffffffffffffffffffffffff1673ffffffffffffffffffffffffffffffffffffffff16815260200190815260200160002060009054906101000a900460ff169050919050565b600160003373ffffffffffffffffffffffffffffffffffffffff1673ffffffffffffffffffffffffffffffffffffffff16815260200190815260200160002060009054906101000a900460ff16806110f657506000809054906101000a900473ffffffffffffffffffffffffffffffffffffffff1673ffffffffffffffffffffffffffffffffffffffff163373ffffffffffffffffffffffffffffffffffffffff16145b151561116a576040517f08c379a000000000000000000000000000000000000000000000000000000000815260040180806020018281038252601b8152602001807f556e6174686f72697a656420436f6e74726163742043616c6c6572000000000081525060200191505060405180910390fd5b8060ff16600281111561117957fe5b600360008473ffffffffffffffffffffffffffffffffffffffff1673ffffffffffffffffffffffffffffffffffffffff16815260200190815260200160002060000160146101000a81548160ff021916908360028111156111d657fe5b021790555060028160ff1614156111fa576002600081548092919060010191905055505b5050565b565b600160003373ffffffffffffffffffffffffffffffffffffffff1673ffffffffffffffffffffffffffffffffffffffff16815260200190815260200160002060009054906101000a900460ff16806112a457506000809054906101000a900473ffffffffffffffffffffffffffffffffffffffff1673ffffffffffffffffffffffffffffffffffffffff163373ffffffffffffffffffffffffffffffffffffffff16145b1515611318576040517f08c379a000000000000000000000000000000000000000000000000000000000815260040180806020018281038252601b8152602001807f556e6174686f72697a656420436f6e74726163742043616c6c6572000000000081525060200191505060405180910390fd5b6080604051908101604052808573ffffffffffffffffffffffffffffffffffffffff1681526020018460ff16600281111561134f57fe5b600281111561135a57fe5b815260200183838080601f0160208091040260200160405190810160405280939291908181526020018383808284378201915050505050508152602001600060ff16815250600360008673ffffffffffffffffffffffffffffffffffffffff1673ffffffffffffffffffffffffffffffffffffffff16815260200190815260200160002060008201518160000160006101000a81548173ffffffffffffffffffffffffffffffffffffffff021916908373ffffffffffffffffffffffffffffffffffffffff16021790555060208201518160000160146101000a81548160ff0219169083600281111561144957fe5b0217905550604082015181600101908051906020019061146a9291906126bd565b5060608201518160030160006101000a81548160ff021916908360ff16021790555090505050505050565b6008818154811015156114a457fe5b906000526020600020016000915090505481565b60008060009054906101000a900473ffffffffffffffffffffffffffffffffffffffff1673ffffffffffffffffffffffffffffffffffffffff163373ffffffffffffffffffffffffffffffffffffffff1614151561157e576040517f08c379a000000000000000000000000000000000000000000000000000000000815260040180806020018281038252601c8152602001807f43616c6c6572206973206e6f7420636f6e7472616374206f776e65720000000081525060200191505060405180910390fd5b6000600160008473ffffffffffffffffffffffffffffffffffffffff1673ffffffffffffffffffffffffffffffffffffffff16815260200190815260200160002060006101000a81548160ff021916908315150217905550600160008373ffffffffffffffffffffffffffffffffffffffff1673ffffffffffffffffffffffffffffffffffffffff16815260200190815260200160002060009054906101000a900460ff169050919050565b6000600160003373ffffffffffffffffffffffffffffffffffffffff1673ffffffffffffffffffffffffffffffffffffffff16815260200190815260200160002060009054906101000a900460ff16806116d057506000809054906101000a900473ffffffffffffffffffffffffffffffffffffffff1673ffffffffffffffffffffffffffffffffffffffff163373ffffffffffffffffffffffffffffffffffffffff16145b1515611744576040517f08c379a000000000000000000000000000000000000000000000000000000000815260040180806020018281038252601b8152602001807f556e6174686f72697a656420436f6e74726163742043616c6c6572000000000081525060200191505060405180910390fd5b600560008373ffffffffffffffffffffffffffffffffffffffff1673ffffffffffffffffffffffffffffffffffffffff168152602001908152602001600020549050919050565b600160003373ffffffffffffffffffffffffffffffffffffffff1673ffffffffffffffffffffffffffffffffffffffff16815260200190815260200160002060009054906101000a900460ff168061182f57506000809054906101000a900473ffffffffffffffffffffffffffffffffffffffff1673ffffffffffffffffffffffffffffffffffffffff163373ffffffffffffffffffffffffffffffffffffffff16145b15156118a3576040517f08c379a000000000000000000000000000000000000000000000000000000000815260040180806020018281038252601b8152602001807f556e6174686f72697a656420436f6e74726163742043616c6c6572000000000081525060200191505060405180910390fd5b600060018111156118b057fe5b600460008773ffffffffffffffffffffffffffffffffffffffff1673ffffffffffffffffffffffffffffffffffffffff168152602001908152602001600020858560405180838380828437820191505092505050908152602001604051809103902060030160009054906101000a900460ff16600181111561192e57fe5b1415156119c9576040517f08c379a00000000000000000000000000000000000000000000000000000000081526004018080602001828103825260218152602001807f496e737572616e63652068617320616c7265616479206265656e20626f75676881526020017f740000000000000000000000000000000000000000000000000000000000000081525060400191505060405180910390fd5b60806040519081016040528085858080601f0160208091040260200160405190810160405280939291908181526020018383808284378201915050505050508152602001838152602001828152602001600180811115611a2557fe5b815250600460008773ffffffffffffffffffffffffffffffffffffffff1673ffffffffffffffffffffffffffffffffffffffff16815260200190815260200160002085856040518083838082843782019150509250505090815260200160405180910390206000820151816000019080519060200190611aa69291906126bd565b50602082015181600101556040820151816002015560608201518160030160006101000a81548160ff02191690836001811115611adf57fe5b0217905550905050600460008673ffffffffffffffffffffffffffffffffffffffff1673ffffffffffffffffffffffffffffffffffffffff168152602001908152602001600020848460405180838380828437820191505092505050908152602001604051809103902060020154600560008773ffffffffffffffffffffffffffffffffffffffff1673ffffffffffffffffffffffffffffffffffffffff1681526020019081526020016000205401600560008773ffffffffffffffffffffffffffffffffffffffff1673ffffffffffffffffffffffffffffffffffffffff168152602001908152602001600020819055505050505050565b60008060009054906101000a900473ffffffffffffffffffffffffffffffffffffffff1673ffffffffffffffffffffffffffffffffffffffff163373ffffffffffffffffffffffffffffffffffffffff16141515611c9e576040517f08c379a000000000000000000000000000000000000000000000000000000000815260040180806020018281038252601c8152602001807f43616c6c6572206973206e6f7420636f6e7472616374206f776e65720000000081525060200191505060405180910390fd5b611cdb8585858080601f01602080910402602001604051908101604052809392919081815260200183838082843782019150505050505084612598565b905060076000826000191660001916815260200190815260200160002060000160149054906101000a900460ff16151515611da4576040517f08c379a00000000000000000000000000000000000000000000000000000000081526004018080602001828103825260228152602001807f466c696768742068617320616c7265616479206265656e20726567697374657281526020017f656400000000000000000000000000000000000000000000000000000000000081525060400191505060405180910390fd5b600060076000836000191660001916815260200190815260200160002060040160009054906101000a900460ff1660ff16141515611e4a576040517f08c379a000000000000000000000000000000000000000000000000000000000815260040180806020018281038252601c8152602001807f466c696768742068617320616c72656164792074616b656e206f66660000000081525060200191505060405180910390fd5b5050505050565b6000806000600160003373ffffffffffffffffffffffffffffffffffffffff1673ffffffffffffffffffffffffffffffffffffffff16815260200190815260200160002060009054906101000a900460ff1680611efa57506000809054906101000a900473ffffffffffffffffffffffffffffffffffffffff1673ffffffffffffffffffffffffffffffffffffffff163373ffffffffffffffffffffffffffffffffffffffff16145b1515611f6e576040517f08c379a000000000000000000000000000000000000000000000000000000000815260040180806020018281038252601b8152602001807f556e6174686f72697a656420436f6e74726163742043616c6c6572000000000081525060200191505060405180910390fd5b600460008773ffffffffffffffffffffffffffffffffffffffff1673ffffffffffffffffffffffffffffffffffffffff1681526020019081526020016000208585604051808383808284378201915050925050509081526020016040518091039020600101549250600460008773ffffffffffffffffffffffffffffffffffffffff1673ffffffffffffffffffffffffffffffffffffffff1681526020019081526020016000208585604051808383808284378201915050925050509081526020016040518091039020600201549150600460008773ffffffffffffffffffffffffffffffffffffffff1673ffffffffffffffffffffffffffffffffffffffff168152602001908152602001600020858560405180838380828437820191505092505050908152602001604051809103902060030160009054906101000a900460ff16905093509350939050565b6000600160003373ffffffffffffffffffffffffffffffffffffffff1673ffffffffffffffffffffffffffffffffffffffff16815260200190815260200160002060009054906101000a900460ff168061216257506000809054906101000a900473ffffffffffffffffffffffffffffffffffffffff1673ffffffffffffffffffffffffffffffffffffffff163373ffffffffffffffffffffffffffffffffffffffff16145b15156121d6576040517f08c379a000000000000000000000000000000000000000000000000000000000815260040180806020018281038252601b8152602001807f556e6174686f72697a656420436f6e74726163742043616c6c6572000000000081525060200191505060405180910390fd5b600360008473ffffffffffffffffffffffffffffffffffffffff1673ffffffffffffffffffffffffffffffffffffffff16815260200190815260200160002060020160008373ffffffffffffffffffffffffffffffffffffffff1673ffffffffffffffffffffffffffffffffffffffff16815260200190815260200160002060009054906101000a900460ff161515156122fe576040517f08c379a00000000000000000000000000000000000000000000000000000000081526004018080602001828103825260228152602001807f43616c6c65722068617320616c7265616479206265656e20617574686f72697a81526020017f656400000000000000000000000000000000000000000000000000000000000081525060400191505060405180910390fd5b6001600360008573ffffffffffffffffffffffffffffffffffffffff1673ffffffffffffffffffffffffffffffffffffffff16815260200190815260200160002060020160008473ffffffffffffffffffffffffffffffffffffffff1673ffffffffffffffffffffffffffffffffffffffff16815260200190815260200160002060006101000a81548160ff021916908315150217905550600360008473ffffffffffffffffffffffffffffffffffffffff1673ffffffffffffffffffffffffffffffffffffffff168152602001908152602001600020600301600081819054906101000a900460ff168092919060010191906101000a81548160ff021916908360ff16021790555050600360008473ffffffffffffffffffffffffffffffffffffffff1673ffffffffffffffffffffffffffffffffffffffff16815260200190815260200160002060030160009054906101000a900460ff16905092915050565b60008060149054906101000a900460ff16905090565b6000600160003373ffffffffffffffffffffffffffffffffffffffff1673ffffffffffffffffffffffffffffffffffffffff16815260200190815260200160002060009054906101000a900460ff168061251c57506000809054906101000a900473ffffffffffffffffffffffffffffffffffffffff1673ffffffffffffffffffffffffffffffffffffffff163373ffffffffffffffffffffffffffffffffffffffff16145b1515612590576040517f08c379a000000000000000000000000000000000000000000000000000000000815260040180806020018281038252601b8152602001807f556e6174686f72697a656420436f6e74726163742043616c6c6572000000000081525060200191505060405180910390fd5b600254905090565b6000838383604051602001808473ffffffffffffffffffffffffffffffffffffffff1673ffffffffffffffffffffffffffffffffffffffff166c0100000000000000000000000002815260140183805190602001908083835b60208310151561261657805182526020820191506020810190506020830392506125f1565b6001836020036101000a03801982511681845116808217855250505050505090500182815260200193505050506040516020818303038152906040526040518082805190602001908083835b6020831015156126875780518252602082019150602081019050602083039250612662565b6001836020036101000a038019825116818451168082178552505050505050905001915050604051809103902090509392505050565b828054600181600116156101000203166002900490600052602060002090601f016020900481019282601f106126fe57805160ff191683800117855561272c565b8280016001018555821561272c579182015b8281111561272b578251825591602001919060010190612710565b5b509050612739919061273d565b5090565b61275f91905b8082111561275b576000816000905550600101612743565b5090565b905600a165627a7a72305820e8d63d52112b47ae4e9be9ec35fa89ea4915720f2ea12e9162200b5e04b2d5d30029",
  "source": "pragma solidity ^0.4.25;\n\nimport \"../node_modules/openzeppelin-solidity/contracts/math/SafeMath.sol\";\n\ncontract FlightSuretyData {\n    using SafeMath for uint256;\n\n    /********************************************************************************************/\n    /*                                       DATA VARIABLES                                     */\n    /********************************************************************************************/\n\n    address private contractOwner;                                      // Account used to deploy contract\n    bool private operational = true;                                    // Blocks all state changes throughout the contract if false\n    mapping(address => bool) private authorizedCallers;\n\n    uint256 internal totalPaidAirlines = 0;\n\n\n    mapping(address => Airline) private airlines;\n\n    enum InsuranceState {\n        Bought,\n        Claimed\n    }\n\n    struct Insurance {\n        string flight;\n        uint256 amount;\n        uint256 payoutAmount;\n        InsuranceState state;\n    }\n\n    mapping(address => mapping(string => Insurance)) private passengerInsurances;\n    mapping(address => uint256) private passengerBalances;\n\n\n    /********************************************************************************************/\n    /*                                       EVENT DEFINITIONS                                  */\n    /********************************************************************************************/\n\n\n    /**\n    * @dev Constructor\n    *      The deploying account becomes contractOwner\n    */\n    constructor() public {\n        contractOwner = msg.sender;\n        airlines[contractOwner] = Airline(contractOwner, AirlineState.Paid, \"First Airline\", 0);\n        totalPaidAirlines++;\n    }\n\n    struct Flight {\n        address airline;\n        bool isRegistered;\n        uint256 timestamp;\n        string flight;\n        address[] buyeraddress;\n        uint8 statuscode;\n        mapping (address => uint256) buyers;\n        uint256 credits;\n    }\n\n\n    mapping(address => bool) private registeredAirlines;\n    mapping(bytes32 => Flight) private flights;\n\n    bytes32[] public flightKeys;\n\n    event RegisteredAirline(address airline, uint airlinesCount);\n    event FlightAdded(address airline, bytes32 flightkey, string flight);\n\n    /********************************************************************************************/\n    /*                                       FUNCTION MODIFIERS                                 */\n    /********************************************************************************************/\n\n    // Modifiers help avoid duplication of code. They are typically used to validate something\n    // before a function is allowed to be executed.\n\n    /**\n    * @dev Modifier that requires the \"operational\" boolean variable to be \"true\"\n    *      This is used on all state changing functions to pause the contract in \n    *      the event there is an issue that needs to be fixed\n    */\n    modifier requireIsOperational() {\n        require(operational, \"Contract is currently not operational\");\n        _;  // All modifiers require an \"_\" which indicates where the function body will be added\n    }\n\n    /**\n    * @dev Modifier that requires the \"ContractOwner\" account to be the function caller\n    */\n    modifier requireContractOwner() {\n        require(msg.sender == contractOwner, \"Caller is not contract owner\");\n        _;\n    }\n\n    modifier isAuthorized() {\n        require(authorizedCallers[msg.sender] || (msg.sender == contractOwner), \"Unathorized Contract Caller\");\n        _;\n    }\n\n    /********************************************************************************************/\n    /*                                       UTILITY FUNCTIONS                                  */\n    /********************************************************************************************/\n\n    /**\n    * @dev Get operating status of contract\n    *\n    * @return A bool that is the current operating status\n    */      \n    function isOperational() public view returns(bool) {\n        return operational;\n    }\n\n    /**\n    * @dev Sets contract operations on/off\n    *\n    * When operational mode is disabled, all write transactions except for this one will fail\n    */    \n    function setOperatingStatus(bool mode) external requireContractOwner {\n        operational = mode;\n    }\n\n    //set calleraruthrozed status\n    function authorizeCaller(address callerAddress) external requireContractOwner returns (bool) {\n        authorizedCallers[callerAddress] = true;\n        return authorizedCallers[callerAddress];\n    }\n\n    function unauthorizeCaller(address callerAddress) external requireContractOwner returns (bool) {\n        authorizedCallers[callerAddress] = false;\n        return authorizedCallers[callerAddress];\n    }\n\n\n    //get caller authrozed status\n\n\n    /********************************************************************************************/\n    /*                                     SMART CONTRACT FUNCTIONS                             */\n    /********************************************************************************************/\n\n   /**\n    * @dev Add an airline to the registration queue\n    *      Can only be called from FlightSuretyApp contract\n    *\n    */  \n\n    enum AirlineState {\n        Applied,\n        Registered,\n        Paid\n    }\n\n    struct Airline {\n        address airlineAddress;\n        AirlineState state;\n        string name;\n        mapping(address => bool) airlineAuthorized;\n        uint8 airlineAuthorizedCount;\n    }\n\n\n\n    function getAirlineState(address airline) external view isAuthorized returns (AirlineState) {\n        return airlines[airline].state;\n    }\n\n\n    function registerAirline(address airlineAddress, uint8 state, string name) external isAuthorized {\n        airlines[airlineAddress] = Airline(airlineAddress, AirlineState(state), name, 0);\n    }  \n\n    function changeAirlineState(address airlineAddress, uint8 state) external isAuthorized {\n        airlines[airlineAddress].state = AirlineState(state);\n        if (state == 2) {\n            totalPaidAirlines++;\n        }\n    } \n\n    function getTotalPaidAirlines() external view isAuthorized returns (uint256) {\n        return totalPaidAirlines;\n    }\n\n    function authorizeAirlineRegistration(address airlineAddress, address authorized) external isAuthorized returns (uint8) { \n        require(!airlines[airlineAddress].airlineAuthorized[authorized], \"Caller has already been authorized\");\n        airlines[airlineAddress].airlineAuthorized[authorized] = true;\n        airlines[airlineAddress].airlineAuthorizedCount++;\n        return airlines[airlineAddress].airlineAuthorizedCount;\n    }\n\n    // function isAirlineRegistered (address airlineAddress) external view returns (bool) {\n    //     return airlines[airlineAddress].registered;\n    // }\n\n    // function registerFlight(address airline, uint256 timestamp, string calldata flight) external requireContractOwner {\n    //     _registerflight(airline);\n    // }\n\n    // function _registerFlight(address airline, uint256 timestamp, string memory flight ) internal {\n    //     bytes32 flightkey = getFlightKey(airline, flight, timestamp);\n    //     require(!flights[flightkey].isRegistered, \"Flight has already been registered\");\n    //     require(flights[flightkey].statuscode == 0, \"Flight has already taken off\");\n\n    //     // create new flight\n\n    //     flights[flightkey] = Flight({\n    //         airline: airline,\n    //         isRegistered: true,\n    //         timestamp: timestamp,\n    //         flight: flight,\n    //         statuscode: STATUS_CODE_UNKNOWN,\n    //         buyeraddress: new address[](0),\n    //         credits: 0 ether\n            \n    //     });\n\n\n    //     flightKeys.push(flightkey);\n\n    //     emit FlightAdded(flightkey, airline, flight);\n    // }\n\n\n   /**\n    * @dev Buy insurance for a flight\n    *\n    */   \n\n    // insurance event state \n\n\n    // get insurance \n    function getInsurance(address passenger, string flight) external view isAuthorized returns (uint256 amount, uint256 payoutAmount, InsuranceState state) {\n        amount = passengerInsurances[passenger][flight].amount;\n        payoutAmount = passengerInsurances[passenger][flight].payoutAmount;\n        state = passengerInsurances[passenger][flight].state;\n    }\n    // create insurance\n\n    function createInsurance(address passenger, string flight, uint256 amount, uint256 payoutAmount) external view isAuthorized {\n        require(passengerInsurances[passenger][flight].amount != amount, \"Insurance already exists\");\n        passengerInsurances[passenger][flight] = Insurance(flight, amount, payoutAmount, InsuranceState.Bought);\n    }\n    // claim insurance\n\n    function claimInsurance(address passenger, string flight, uint256 amount, uint256 payoutAmount) external view isAuthorized {\n        require(passengerInsurances[passenger][flight].state == InsuranceState.Bought, \"Insurance has already been bought\");\n        passengerInsurances[passenger][flight] = Insurance(flight, amount, payoutAmount, InsuranceState.Claimed);\n        passengerBalances[passenger] = passengerBalances[passenger] + passengerInsurances[passenger][flight].payoutAmount;\n    }\n    // get passenger insurance balance\n\n    function getInsuranceBalance(address passenger) external view isAuthorized returns (uint256) {\n        return passengerBalances[passenger];\n    }\n    // pay passenger\n\n    function pay (address passenger) external view  isAuthorized {\n        require(passengerBalances[passenger] > 0, \"Insuffiencet balance\");\n        passengerBalances[passenger] = 0;\n        passenger.transfer(passengerBalances[passenger]);\n    }\n    //  \n\n\n\n    function buy (address airline, string flight, uint256 timestamp) external requireContractOwner {\n        bytes32 flightkey = getFlightKey(airline, flight, timestamp);\n        require(!flights[flightkey].isRegistered, \"Flight has already been registered\");\n        require(flights[flightkey].statuscode == 0, \"Flight has already taken off\");\n\n\n\n    }\n\n    /**\n     *  @dev Credits payouts to insurees\n    */\n    function creditInsurees () external pure {\n\n    }\n    \n\n    /**\n     *  @dev Transfers eligible payout funds to insuree\n     *\n    */\n    function pay () external pure {\n    }\n\n   /**\n    * @dev Initial funding for the insurance. Unless there are too many delayed flights\n    *      resulting in insurance payouts, the contract should be self-sustaining\n    *\n    */   \n    function fund () public payable {\n    }\n\n    function getFlightKey(address airline, string memory flight,uint256 timestamp) pure internal returns(bytes32) {\n        return keccak256(abi.encodePacked(airline, flight, timestamp));\n    }\n\n    /**\n    * @dev Fallback function for funding smart contract.\n    *\n    */\n    function() external payable {\n        fund();\n    }\n\n\n}\n\n",
  "sourcePath": "/Users/haroldsphinx/Documents/BlockChainCourse/FlightSurety/contracts/FlightSuretyData.sol",
  "compiler": {
    "name": "solc",
    "version": "0.4.26+commit.4563c3fc.Emscripten.clang"
  },
  "schemaVersion": "3.1.0",
  "updatedAt": "2020-05-31T21:53:57.870Z",
  "devdoc": {
    "methods": {
      "creditInsurees()": {
        "details": "Credits payouts to insurees"
      },
      "fund()": {
        "details": "Initial funding for the insurance. Unless there are too many delayed flights     resulting in insurance payouts, the contract should be self-sustaining    "
      },
      "getInsurance(address,string)": {
        "details": "Buy insurance for a flight    "
      },
      "isOperational()": {
        "details": "Get operating status of contract",
        "return": "A bool that is the current operating status"
      },
      "pay()": {
        "details": "Transfers eligible payout funds to insuree    "
      },
      "setOperatingStatus(bool)": {
        "details": "Sets contract operations on/off    * When operational mode is disabled, all write transactions except for this one will fail"
      }
    }
  },
  "userdoc": {
    "methods": {}
  }
}